{
  "txid": "e2bf1da44e12b2e608a303c5015fe609e59f2fd241cb9924fd371015aae6c586",
  "vout": 1,
  "scriptPubKey": "a9147d1a1bfcd1bc21354b12d43b9cf91b5b1ea675b587",
  "desc": "addr(2N4ehjNSpa3JaHfEgk4aJRHQu8y7RBp4gAC)#s580s8aq",
  "amount": 5,
  "coinbase": false,
  "height": 1150,
  "rawTx": "020000000167a86a43f7ed1b47073ab79b3703fa9e31d68381b8f927ebbaa2c876c1078941010000006a47304402200fdd299c64a3810d630422c80fdd50abd667c210c7e509faefe520b10c17bdb1022024f6c5dfaf078fb5e196f5b1c93d57c39e423ee6b23a484e60f415286b6a11a60121023fdc9513d6aea300cbbdebf2a47c31dcb7da9e334381f5f72a660f33a633a8e3fdffffff0210b1e60e000000001976a914ca0bbc56301d0a8d4d814891c277dcfa985b691e88ac0065cd1d0000000017a9147d1a1bfcd1bc21354b12d43b9cf91b5b1ea675b5877d040000"
}